:020000040800F2
:10000000D8040020C9000008BD1800085D150008CC
:1000100000000000000000000000000000000000E0
:10002000000000000000000000000000151B000898
:100030000000000000000000BF180008171B0008A7
:10004000DB00000800000000DB000008DB00000807
:10005000DB000008DB000008DB000008DB00000814
:1000600000000000DB000008DB000008DB000008E7
:10007000DB000008DB000008DB00000800000000D7
:10008000DB000008DB00000800000000DB000008C7
:10009000DB000008DB000008DB000008DB000008D4
:1000A000DB000008DB000008DB000008DB000008C4
:1000B000DB0000080348854600F0B8F90048004717
:1000C000192D0008D8040020044880470448004740
:1000D000FEE7FEE7FEE7FEE7FEE7FEE7631B00083C
:1000E000B500000830B50B4601460020202201244F
:1000F00009E00D46D5409D4205D31D469540491B5C
:100100002546954040191546521E002DF1DC30BDA4
:10011000F0B51FB40646002082B005464024019188
:1001200000901BE0019922460F46304600F020F86F
:10013000049A059B801A994110D31046194622460D
:1001400000F0C4F8361A8F410197224601200021A1
:10015000009F00F0BBF838184D4100902046641E07
:100160000028DFDC019B00982946324607B0F0BD2D
:1001700010B5202A04DB0846203AD040002110BDEB
:100180000B46D340D0402024A21A91400843194680
:1001900010BD03460B439B0703D009E008C9121F9B
:1001A00008C0042AFAD203E00B780370401C491CF3
:1001B000521EF9D27047D2B201E00270401C491EB3
:1001C000FBD270470022F6E710B513460A460446F4
:1001D0001946FFF7F0FF204610BD420005D042004F
:1001E000120E52428A4201DB00207047C9050818EE
:1001F000704770B54B005B0803430BD04B005C0DA0
:10020000002633466542B341D417AD1AA34102DB41
:100210000020014670BD12053018514170BDC21753
:10022000C10F504010B54018CA079623002100F0B6
:1002300065F810BD10B500229623114600F05EF857
:1002400010BD00000EB5C217C10F5040CA074018BC
:100250000021054B0293019200910A460B4600F0E3
:1002600093F803B000BD00003304000041004002D9
:100270000122400AD205090E80187F2901DA0020E8
:100280007047962903DC9622511AC8407047963968
:1002900088407047CB0FDB07490010B5490802467C
:1002A0000A4307D00A0D07240903E401090B121BB6
:1002B000002A01DC002010BDC900440F0C43C1001E
:1002C000E018D205801800F011F810BD10B5202AF2
:1002D00004DB0146203A9140002010BD91402023CC
:1002E0009C1A0346E3401943904010BD002904DAEC
:1002F000401C490001D140084000704770B4002400
:10030000050C05D11024000402D1002921D01124AC
:10031000050E01D100020834050F01D10001241D92
:10032000850F01D18000A41C002801DB4000641C63
:10033000002908D020252E1B0D46F540A14000D0F5
:1003400001212943084301061B1B000ADB1D02D5BE
:10035000002070BC7047DB05181880180029F8DAF7
:10036000401C4900F5D170BC40084000704710B5F2
:10037000002B08DA0024401C614192185B411A43AB
:1003800001D14008400010BDF0B51FB482B0054651
:100390000C0003D0084601F0F9FB02E001F0F6FB87
:1003A00020300246009021462846FFF78FFF049B2D
:1003B000059A04460F4618431143084314D01846C3
:1003C00010431BD0009840210A1A18460599FFF7E0
:1003D000CFFE05460E46009A05990498FFF776FF72
:1003E000084305D0012004E02046394607B0F0BD9F
:1003F0000020C11705430E432C43374300990E9844
:100400006305401A7905E40A00220C43FD0A0A300C
:1004100002D500200146E9E70105101969410C9C4D
:100420000D9D00196941FFF7A2FFDFE7064C01258A
:10043000064E05E0E36807CC2B430C3C984710348C
:10044000B442F7D3FFF73AFE142E0008342E00080A
:10045000F8B5044600200090206881688907890F5C
:10046000012905D10168C90731D1C16809042ED419
:100470008168184A10261140012500291AD1816887
:1004800029438160154814490068FFF72BFE00E0FE
:10049000401E00900028FBD100F012FB074611E03F
:1004A00000F00EFBC01B02280CD920680068C04376
:1004B000C00707D0A06B3043A063E06B2843E06324
:1004C0000120F8BD20680068C043C007E8D10020C3
:1004D000F8BD00001700008040420F002C000020F3
:1004E000F8B50025044620340095227D012A39D034
:1004F0000122227503689E68760767D4384F4E68DC
:10050000BE424DD09E6A0F78BA4016439E620123C8
:10051000C26A1B079A421FD0012A1DD0022A1BD093
:10052000032A19D0042A17D0052A15D0062A13D079
:10053000072A11D002688B6856697607760FB34296
:100540000AD05369DB08DB005361006842690B7A0B
:100550005B075B0F1A4342610A68102A04D0112A14
:1005600002D038E00220F8BD1E488368102A07D068
:1005700001229205134383600868102803D02AE003
:100580000122D205F6E7194817490068FFF7AAFDCE
:100590000A21484300E0401E00900028FBD11AE0E9
:1005A000986A0E78B240904398620968102901D089
:1005B000112910D10B488268102904D00121890526
:1005C0008A43826007E00121C905F9E7816B202297
:1005D000114381630125002020752846F8BD0000E5
:1005E000011000000027014040420F002C000020B5
:1005F0000068006C70470000F8B50026044600282B
:1006000005D0A06B25462035002802D007E0012048
:10061000F8BD0020E0632875204600F0A9F8A06B23
:100620001022C006002870DB2068816849076CD45E
:10063000A16B1301994302231943A16381688907C0
:10064000890F012905D10168C9070FD1C1680904C3
:100650000CD4C16818239943A3681943C16020686A
:100660000169636889008908194301612068C168CC
:100670003D4B1940C160207E617E8003C903084361
:10068000A17E4B031843A36A012B02D001231B0355
:1006900000E000231843E36818432369022B09D0C4
:1006A000002318432B79E57E5B0018430123012DBD
:1006B00002D00AE00423F4E7002927D0A16B20250B
:1006C0002943A163E16B1943E163E1690D46FF3DF5
:1006D000C23D02D0256A294308432168CD680543FD
:1006E000CD600125E16A2D07A94213D0012911D05F
:1006F00002290FD003290DD004290BD0052909D0D8
:10070000062907D0072905D010E028E001210904B7
:100710000843DAE721684D69ED08ED004D61216875
:100720004D69A78D7F077F0F3D434D612168C968E3
:100730000E4D2940814207D10020E063A06B800864
:100740008000401CA06308E0A06B02218843104396
:10075000A063E06B1843E06301263046F8BDA06B50
:100760001043A063F8E700001902FEFFE7FF3F8394
:1007700010B586B0044614216846FFF723FD1049E2
:100780002068884219D10F48826941150A43826165
:1007900082690A400592426909020A43426140693E
:1007A000084005900820009003200190002002904E
:1007B00009206946C00600F0ABF806B010BD000085
:1007C0000024014000100240F8B504464069254667
:1007D00020350E4608280BD02068C068C00709D015
:1007E000A06B20210843A063002028750120F8BDDC
:1007F000082700E00C2700F063F9009015E0701C5A
:1008000013D0002E05D000F05BF90099401AB042D9
:100810000BD920680068384207D1A06B0421084337
:10082000A063002028750320F8BD206800683842C6
:10083000E5D0A06B012149020843A0632068C1688C
:1008400009058A0F0C21002A1AD1A27E002A17D18D
:100850000268120714D5826853070122002B08DBB7
:1008600043688B434360A06B130298431043A0631B
:1008700006E0A06B20231843A063E06B1043E06305
:10088000207E002801D1206801600020F8BD000012
:1008900070B50446216800208968490721D425469F
:1008A0002035297D01291CD001212975617E01296E
:1008B00004D02046FFF7CCFD002811D1A16B0A4AD5
:1008C0001140FF2201321143A1630021E163297528
:1008D00022681C21116021688A6804231A438A60F7
:1008E00070BD022070BD0000FEF1FFFF70B5044630
:1008F00000F0E6F80546601C02D004480078241891
:1009000000F0DEF8401BA042FAD370BD20000020AA
:10091000F8B5002303240125BAE02E469E40B446D4
:1009200032407CD00E79B607B60F012E01D0022ED0
:1009300017D186682746B6465E00B74000967646D1
:10094000BE43B646CF68009EB740764637438760C1
:1009500046686746BE430F79FF06FF0F9F40374347
:1009600047600E79F643B6070ED0C6682746B446F0
:100970005E00B646B7406646BE43B4468F687646CC
:10098000B74066463743C7600E79B607B60F022EEA
:1009900014D1DE08B60036180096366A5F07B446F2
:1009A000FE0E0F27B646B7406646BE43B4460F69F3
:1009B0007646B74066463743009E3762066827464C
:1009C000B4465E00B646B7406646BE430F79B446AD
:1009D000BF07BF0F7646B7406646374307604E688D
:1009E000B603B60F53D02D4FBE692E43BE61BE690C
:1009F0009F08F607F60F2A4EBF00BE190096B6688C
:100A00000F27B4469E07360FB646B7406646BE432C
:100A10000927FF06B446B84202D1002710E036E0AD
:100A2000204FB84201D101270AE01F4FB84201D13F
:100A3000022705E01D4FB84201D1032700E005273A
:100A40007646B74066463743009EB760184E366814
:100A50004F689643FF0300D51643154F3E607E68EE
:100A60004F689643BF0300D51643114F7E60BE68A2
:100A70004F689643FF0200D516430D4FBE60FE68D7
:100A80004F689643BF0200D51643094AD6605B1CE7
:100A90000A681646DE4000D03FE7F8BD001002406D
:100AA000000001400004004800080048000C004815
:100AB00000040140002A01D08161704781627047C3
:100AC00001488068704700002000002002488168CB
:100AD00002788918816070472000002010B5064810
:100AE0000168102211430160002000F007F800F0B7
:100AF00027F8002010BD00000020024070B5044619
:100B00000D4D7D202978C000FFF7ECFA01460B4817
:100B10000068FFF7E7FA00F009FD002809D1042C6E
:100B200007D200222146401E00F01EF800206C6013
:100B300070BD012070BD0000200000202C000020AE
:100B400008B508488169012211438161816911401A
:100B50000091C26901040A43C261C0690840009063
:100B600008BD00000010024010B501F04BF810BDA8
:100B7000F8B50F46060059D03A4D2868C007C00F97
:100B8000B84209D2286840084000384328602868E5
:100B9000C007C00FB84249D13068334C81070CD52B
:100BA000400704D560680721090208436060606857
:100BB000F0218843B168084360603078C00726D0D0
:100BC000706801280ED0216802280ED089070029FC
:100BD0002CDA61688908890001436160FFF770FFC2
:100BE00000900DE021688903F1E78901EFE7FFF745
:100BF00067FF0099411A1D48814201D90320F8BDC1
:100C000060680C210840716889008842EFD128682B
:100C1000C007C00FB8420BD92868400840003843CD
:100C200028602868C007C00FB84201D00120F8BD75
:100C30003078400706D56068072109028843F168CB
:100C40000843606000F018F86168094A0906090F56
:100C5000515CC840074908600020FFF74FFF0020A3
:100C6000F8BD000000200240001002408813000080
:100C7000042E00082C00002010B514A30FCB88B060
:100C80006C460FC415A30FCB0FC4184A51680C2033
:100C90000B4603401648042B16D0082B14D18B02A8
:100CA0001B0F6C46E45CD26A04AB1207120F9A5C0D
:100CB000C90305D500231946FFF72AFA214601E0AA
:100CC00020460C4900F079FF08B010BD020304056E
:100CD000060708090A0B0C0D0E0F10100102030481
:100CE00005060708090A0B0C0D0E0F100010024034
:100CF00000127A0000093D00FEB5040070D0207893
:100D0000DC4DC0074AD068680007800F012807D073
:100D100068680007800F022809D16868C00306D5FB
:100D2000286880033AD560680028E7D036E061681B
:100D3000012914D001208004002901D0052914D0F4
:100D40002A68012109048A432A60296881432960AD
:100D50006068002816D0FFF7B3FE06460EE028684C
:100D60000121090408432860F2E72968014329604A
:100D7000F5E7FFF7A5FE801B64286ED8286880037E
:100D8000F7D50BE0FFF79CFE064604E0FFF798FE60
:100D9000801B6428F1D828688003F7D420780126C6
:100DA000800700283CDA68680007800F07D0686871
:100DB0000007800F022809D16868C00306D428689C
:100DC000800716D5E06801280AD112E0E068002803
:100DD000286816D030432860FFF772FE074605E00A
:100DE00043E1FFF76DFEC01B0228C6D828688007C4
:100DF000F7D52868F82188432169C900084328608D
:100E00000EE0400840002860FFF75AFE074604E065
:100E1000FFF756FEC01B0228AFD828688007F7D41A
:100E20002078000722D5E0690028686A0ED0304398
:100E30006862FFF745FE074604E0FFF741FEC01B6E
:100E400002289AD8686A8007F7D50FE0400840006A
:100E50006862FFF735FE074605E09DE0FFF730FECC
:100E6000C01B022889D8686A8007F7D42078042735
:100E70004007002860DA00200190E869C00008D42B
:100E8000E969B8060143E961E9690140012000917F
:100E9000019079480168C90511D401688215114390
:100EA0000160FFF70DFE009005E0FFF709FE0099D5
:100EB000401A642870D870480068C005F5D5A0684D
:100EC00001280AD0002801D0052810D0286A40083F
:100ED00040002862286AB84301E0286A304328624B
:100EE000A068002812D0FFF7EBFD00900AE0286A06
:100EF00038432862F1E7FFF7E3FD0099411A5F48A4
:100F0000814249D8286A8007F5D50DE0FFF7D8FD62
:100F1000009006E0FFF7D4FD0099411A574881423E
:100F20003AD8286A8007F5D40198002804D0E969E6
:100F3000012000078143E9612078C00635D560694A
:100F400001280CD0401D686B23D038436863686B60
:100F5000400840006863FFF7B3FD064622E0686B77
:100F600038436863686B30436863FFF7A9FD064642
:100F700004E0FFF7A5FD801B02285BD8686B8007A3
:100F8000F7D5686BF8218843A169C90008436863F5
:100F90000BE0B8436863F4E74CE0FFF791FD801B7A
:100FA000022847D8686B8007F7D4206A00285ED0F3
:100FB00069680907890F022942D0012636060228EE
:100FC000286805D0B0432860FFF77AFD044633E077
:100FD000B0432860FFF774FD074604E0FFF770FD9B
:100FE000C01B022826D828688001F7D4E86AE16A85
:100FF000000900010843E862616AA06A0843696861
:101000003D221204914308436860286830432860F9
:10101000FFF756FD044604E0FFF752FD001B0228CF
:1010200008D828688001F7D521E0FFF749FD001BAB
:10103000022801D90320FEBD28688001F5D416E0FE
:101040000128F8D06868E96A01221204636A024044
:101050009A420AD10907E26A090F914205D10F218C
:1010600089040840A16A884201D00120FEBD002009
:10107000FEBD000000100240007000408813000018
:10108000F8B504000CD0606A002500280AD025615C
:10109000656126464036A562707F002808D00BE0C7
:1010A0000120F8BD6168C81FFD38F2D0E561F0E7A6
:1010B0003577204600F05CF80222727720680168DC
:1010C0004023994301600723E1681B02994201D93B
:1010D000002001E0012000030F273F02B94202D0A7
:1010E000994200D0A562FF2361680533194021278A
:1010F000A368BF023B40194323691340227D194373
:10110000D207D20F11430123A2695B021A40114397
:10111000E26938231A401143226A80231A4011439E
:10112000A26A9B011A40114322681160A16904223E
:10113000090C1140626A10231A401143626B0823A4
:101140001A4011430F23E2681B021A401143012287
:10115000120310400143206841602068C1695210A9
:101160009143C1612566012070770020F8BD000021
:1011700010B586B0044614216846FFF723F81149DC
:10118000206888421CD11048C26909140A43C26110
:10119000C2690A400592426909010A4342614069F5
:1011A0000840059003204003009002200021019098
:1011B000032002910491039069460448FFF7A8FBBD
:1011C00006B010BD00380040001002400004004886
:1011D000FFB504464068FF2125460026053140350D
:1011E00081B01746884202D1A06800280CD0287F21
:1011F000012815D001202877FFF762FC0090687F56
:1012000001280FD002268FE0042068771346049847
:10121000029A00901146204600F08EF805B0F0BD0D
:101220000220FBE7029800287DD0002F7BD004200D
:1012300068770020206602992164AF80EF80A06368
:10124000A087E087E064206507210120E2680902A9
:1012500000038A422268536801D9834300E00343B4
:1012600053600123A068DB034022984208D1206824
:10127000036893430360206803681702BB4303605D
:10128000206803685B0602D4036813430360E068C8
:1012900088421AD938E020688168C90709D0007BE4
:1012A000216C0870206C401C2064E888401EE88097
:1012B0000BE0FFF705FC0099411A0498814202D324
:1012C000401C02D036E0002834D0E8880028E2D163
:1012D0001DE020688168C90709D0C068216C0880BA
:1012E000206C801C2064E888401EE8800CE0FFF73A
:1012F000E7FB01460098091A0498814202D3401C7A
:1013000002D017E0002815D0E8880028E1D1204657
:10131000009A049900F0D4FA002801D02020206619
:10132000206E002800D00126012068770020287751
:10133000304673E70326F7E7FFB5044683B0012084
:1013400001900020254640350090287F0C9F1E46C6
:1013500001280FD001202877FFF7B2FB0290687FA9
:10136000616801280DD0CA1FFD3A08D1A168002983
:1013700005D102E0022007B0F0BD042801D0022010
:10138000D1E00498002820D0059800281DD0002E18
:101390001BD0687F042801D00520687700202066D4
:1013A00005992164EE80AE800499A163E687A68743
:1013B000E064206507210120E268090200038A42F7
:1013C0002268536803D9834302E00120ABE0034362
:1013D000536020680268520603D4026840231A430F
:1013E0000260E0688842606844D9002801D0012E7C
:1013F00039D1A06B21680088C860A06B801CA063F5
:10140000E08F401EE0872EE020688168890710D5B4
:10141000E18F00290DD0019901290AD1A16B09881A
:10142000C160A06B801CA063E08F401EE08700209D
:10143000019020688168C9070DD0E98800290AD089
:10144000C068216C0880206C801C2064E888401EE5
:10145000E88001200190FFF733FB0299401AB8425F
:1014600001D3781C5ED1E08F0028CDD1E888002818
:10147000CAD146E0002801D0012E3CD1A06B2168E2
:1014800000780873A06B401CA063E08F401EE087CB
:1014900031E020688168890710D5E18F00290DD0DF
:1014A000019901290AD1A16B09780173A06B401C35
:1014B000A063E08F401EE0870020019020688168D3
:1014C000C9070DD0E98800290AD0007B216C08707B
:1014D000206C401C2064E888401EE88001200190B8
:1014E000FFF7EEFA0299401AB84202D3781C02D0F4
:1014F00018E0002F16D0E08F0028CAD1E888002815
:10150000C7D139462046029A00F016FA002803D0C7
:101510000120009020202066012068770020287795
:10152000009828E703200090F6E70000094910B56D
:10153000401E884201D9012010BD074C6061032183
:10154000081F00F05FFB0020A06107202061002041
:1015500010BD0000FFFFFF0000E000E0FEE710B557
:10156000012000F039F80220FFF7C0F910BD10B5D6
:10157000332000F031F8322000F02EF8282000F05F
:101580002BF8062000F028F80C2000F025F80120A8
:1015900000F022F810BD10B5044602E000F00EF88D
:1015A000641C20780028F9D110BD10B5044600094C
:1015B00000F020F8204600F01DF810BD10B50446DC
:1015C000012211020348FFF775FA2046FFF7EDFFED
:1015D00010BD00000004004810B50446FF210022A1
:1015E00001310348FFF766FA2046FFF7DEFF10BD22
:1015F0000004004870B5C207154D04460121D20F02
:10160000C9022846FFF756FAA007C20F0121890236
:101610002846FFF74FFA6007C20F01210920C903CE
:10162000C006FFF747FA2007C20F80210948FFF7DD
:1016300041FA094C012240212046FFF73BFA0120E4
:10164000FFF754F9002240212046FFF733FA70BD1E
:1016500000080048001400480004004808B506A22D
:10166000126800926A46105C401880210843C0B29C
:10167000FFF7B2FF08BD0000004014540EB5002172
:101680001448009101910291114A41600260816009
:10169000012204230C300EC0017041708170FF23C1
:1016A000C170C2334360034681600833197102611F
:1016B0001838FEF7A1FF03200090012000030190DD
:1016C0000004029069460348FEF70AFF0EBD0000C1
:1016D0000024014030000020F0B587B01421684696
:1016E000FEF770FD3C4842690121C9040A4342618A
:1016F00042690A400592426989100A43426142697F
:101700000A400592426949010A43426142690A401E
:101710000592426909110A43426140690B2408405D
:10172000A4020590002221462C48FFF7C3F90022AD
:10173000B0212B48FFF7BEF92A4E0920002231467E
:10174000C006FFF7B7F93F277F0100223946264838
:10175000FFF7B0F900940024012501950294694631
:101760001E480394FFF7D4F80320800300900194EF
:10177000694602941948FFF7CBF8B0200090029414
:101780006946019503941648FFF7C2F809200294B0
:101790006946C006009601950394FFF7B9F80294D4
:1017A00069461148009701950394FFF7B1F8E802E4
:1017B000009003200190694602940B48FFF7A8F8B7
:1017C0000320C00200900920019469460294C006DB
:1017D000FFF79EF807B0F0BD001002400008004877
:1017E00000140048708000000004004810B50E4846
:1017F0000C4901600122D203826000214160032272
:1018000012020161C2604161012201625202416221
:101810008261816207220163C2624163FFF730FC8B
:1018200010BD000000380040700000200FB470B5FB
:101830000124204DA402002221462846FFF73AF950
:101840007D23DB0004221C4904A8FFF7C1FC012210
:1018500021462846FFF72EF91749CC780A46650736
:101860006D0F083A15700878C3095360620706D0F7
:101870006842FEF7D4FC70BC08BC04B018470124D1
:10188000E443002B09D04978800189080843C0044B
:10189000C00CE10C4840404203E0497880018908CF
:1018A0000843FEF7CFFC2246FEF7A3FCFEF7F2FC4E
:1018B000E1E7000000040048140000207047704772
:1018C000F7B504464068FF26053682B01546B0429B
:1018D0000CD10121A068C903884202D04911884275
:1018E00004D12068016840229143016000950022E4
:1018F00080212046039B00F0B1F82027002813D157
:101900006068B04216D1A068B902884202D049117D
:1019100088420FD103210095002249022046039BF3
:1019200000F030F8002805D0206E384320660320F0
:1019300005B0F0BD0020FBE7F8B50F460B46154695
:101940000092032104460022C90200F01BF8202661
:10195000002812D13B46002280212046009500F04D
:101960007DF8002809D103213B4600224902204688
:10197000009500F007F8002803D0206E3043206661
:101980000320F8BDFFB585B00E4604460020694629
:101990000E9D17460871FFF793F8411B0898451AEA
:1019A000FFF78EF80390206823210C3002902A481C
:1019B00000684843000D684346E003204002864229
:1019C00006D1002F04D10298017868460171007990
:1019D0000898401C39D0FFF773F80399401AA842C1
:1019E00005D2002D03D0009800282BD02BE02068D2
:1019F0004168E022914341606068C11FFD390CD10C
:101A00000121A068C903884202D04911884204D14B
:101A1000206801684022914301600120A16A4003CF
:101A2000814207D121680A6882430A6021680A68F6
:101A300002430A60012040346077002020770320B1
:101A400009B0F0BD0025401E00902068806830403D
:101A5000B842B2D10020F3E72C000020FFB581B0DE
:101A60001E4604460A9DFFF72BF8401B351AFFF768
:101A700027F80746264800684001000D684339E012
:101A8000701C38D0FFF71CF8C01BA84205D2002DEF
:101A900003D0009800282BD02BE020684168E0227A
:101AA000914341606068C11FFD390CD10121A068DC
:101AB000C903884202D04911884204D120680168D4
:101AC0004022914301600120A16A4003814207D175
:101AD00021680A6882430A6021680A6802430A6032
:101AE00001204034607700202077032005B0F0BD4E
:101AF0000025401E0090206881680298884305D028
:101B0000002103988142BBD10020EFE70121F8E7D3
:101B10002C000020704710B5FEF7D8FF10BD10B59F
:101B200090B030216846FEF74DFB002412200F9440
:101B3000009001200D940390059010200E940490C5
:101B400006900C9408946846FFF7D6F807200C908E
:101B50000D940E9400210F940CA8FFF709F810B013
:101B600010BD70470FB410B504A9074B02AA039823
:101B700000F07AF8044602A9002000F01DF9204682
:101B800010BC08BC04B01847B91D00082021020C85
:101B900001D010211046020A01D01046083902096E
:101BA00001D01046091F820801D01046891E420844
:101BB00001D0881E7047081A7047F8B5040C8BB224
:101BC000264682B25E430D0C1046370C584336044D
:101BD00080190021794116466E43370C360480196E
:101BE000794126466E438919F8BD30B47446641EA7
:101BF0002578641CAB4200D21D46635D5B00E31890
:101C000030BC18478307FF22DB0E9A408907090E74
:101C10009940002808DB830809489B001B181868B6
:101C200090430843186070470007000F0838830886
:101C300004489B001B18D86990430843D86170473B
:101C400000E400E000ED00E002E008C8121F08C157
:101C5000002AFAD170477047002001E001C1121F2D
:101C6000002AFBD170470000FFB58DB00446002567
:101C700006E025280AD0109A0F999047641C6D1C25
:101C800020780028F5D1284611B0F0BD00270121A9
:101C9000484A009700E00743641C23780846203B2D
:101CA00098401042F7D120782E2817D104200743FE
:101CB0006078641C2A280CD10E98641C02C800911C
:101CC0000E900BE000990A22514330394018641CF1
:101CD00000902078014630390929F3D9207800286E
:101CE000D1D0642808D0692806D075281ED0109A53
:101CF0000F9990476D1C5BE00A200E99019001C975
:101D00000E91002802DA40422D2102E0390504D567
:101D10002B216A461172012103E0F90704D020212A
:101D2000F7E70BAE0B910DE00021FAE70A200E99C0
:101D3000019001C90E91F7E70199FEF7D3F930310F
:101D4000761E31700028F7D103A8801B2030019047
:101D5000780701D5009801E00120009001998842A0
:101D600001DD401A00E000200027009006E002A8F4
:101D7000109AC05D0F9990476D1C7F1C0B9887428D
:101D8000F5DB04E0109A30200F9990476D1C009904
:101D9000481E00900029F5DC05E03078109A761C8A
:101DA0000F9990476D1C0199481E01900029F4DCA1
:101DB000641C65E7092801000A68531C0B60107059
:101DC000704700000FB410B502A8FEF761FD0021B6
:101DD000C94302A8FEF7F8FC02A8FEF709FC084C6C
:101DE00080B2208084214843FEF724FA0B21C943A6
:101DF000FEF7F3F9606010BC08BC04B0184700009F
:101E00000000002010B50300FFF7EFFE180D1013BF
:101E100016281C1F222530333619393C44474A4DB9
:101E2000505356595C0F00F00FFE10BD00F0AAF998
:101E300010BD00F0D9FC10BD00F020FD10BD00F079
:101E4000ADFD10BD00F046F810BD00F099F810BDD2
:101E500000F0ECF810BD00F03FF910BD1B48006821
:101E6000FEF704FAC0B200F01BFF10BD00F0D2F97B
:101E700010BD00F05FFA10BD00F08CFA10BD00F04C
:101E800031FE10BD12480068FEF7F0F9C0B200F054
:101E9000C1FE10BD00F068FE10BD00F0F5F910BDE8
:101EA00000F0A6FB10BD00F0A5FA10BD00F026FD65
:101EB00010BD00F049FC10BD00F0F0FB10BD00F0BB
:101EC00045FB10BD00F0ECFA10BD00001C00002026
:101ED0001800002010B5114905200870FFF73FFBDE
:101EE00000210846FFF7BAFB0DA0FFF754FB0021C5
:101EF0000120FFF7B3FB10A0FFF74DFB00210220EC
:101F0000FFF7ACFB12A0FFF746FB00210320FFF711
:101F1000A5FB15A0FFF73FFB10BD00000800002047
:101F2000492F4F2020202020202053595320454E58
:101F3000204F464600000000444941472020202011
:101F40002020452D53544F50204F4646000000009E
:101F5000312020202020202020202020204E4558E5
:101F6000542D2D3E00000000202020202020202085
:101F700020202020204D454E552D2D3E00000000F4
:101F800010B5114906200870FFF7E9FA002108464C
:101F9000FFF764FB0DA0FFF7FEFA00210120FFF719
:101FA0005DFB10A0FFF7F7FA00210220FFF756FBB8
:101FB00012A0FFF7F0FA00210320FFF74FFB15A056
:101FC000FFF7E9FA10BD000008000020492F4F205C
:101FD00020204255524E455220505752204F4646DF
:101FE00000000000444941472020204255524E4500
:101FF0005220454E204F464600000000322020204F
:102000002020202020202020204E4558542D2D3ED9
:102010000000000020202020202020202020202040
:10202000204D454E552D2D3E0000000010B51149A4
:1020300007200870FFF793FA00210846FFF70EFB10
:102040000DA0FFF7A8FA00210120FFF707FB10A061
:10205000FFF7A1FA00210220FFF700FB12A0FFF713
:102060009AFA00210320FFF7F9FA15A0FFF793FA77
:1020700010BD000008000020492F4F202020202004
:1020800020202020494E4352204F464600000000A9
:10209000444941472020202020202020444543520D
:1020A000204F464600000000332020202020202022
:1020B00020202020204E4558542D2D3E00000000A9
:1020C000202020202020202020202020204D454E90
:1020D000552D2D3E0000000010B511490820087054
:1020E000FFF73DFA00210846FFF7B8FA0DA0FFF709
:1020F00052FA00210120FFF7B1FA10A0FFF74BFAC6
:1021000000210220FFF7AAFA12A0FFF744FA0021EB
:102110000320FFF7A3FA15A0FFF73DFA10BD00005A
:1021200008000020492F4F202020574F524B204CB1
:1021300049474854204F4646000000004449414763
:10214000202020202020202020202020202020208F
:1021500000000000342020202020202020202020EB
:10216000204E4558542D2D3E0000000020202020F8
:102170002020202020202020204D454E552D2D3E72
:102180000000000010B5114901200870FFF7E7F9C1
:1021900002210020FFF762FA0DA0FFF7FCF90221EF
:1021A0000120FFF75BFA0EA0FFF7F5F902210846C0
:1021B000FFF754FA0EA0FFF7EEF901210320FFF715
:1021C0004DFA0FA0FFF7E7F910BD0000080000204E
:1021D0002121212043415554494F4E2021212100E6
:1021E0004F56455254454D50455241545552450065
:1021F000494E5350454354204348414D42455200B7
:10220000504F574552204F464620544F2052455379
:102210004554000010B5114909200870FFF79FF9D7
:1022200000210846FFF71AFA0DA0FFF7B4F90A21BA
:102230000120FFF713FA0CA0FFF7ADF90B210220E4
:10224000FFF70CFA0BA0FFF7A6F90D210320FFF70B
:1022500005FA0BA0FFF79FF910BD00000800002051
:10226000414E414C4F47000041535048414C542D82
:102270002D3E00004255524E45522D2D3E0000008D
:102280004D454E552D2D3E0010B5114910200870BA
:10229000FFF765F900210846FFF7E0F90DA0FFF709
:1022A0007AF900210120FFF7D9F910A0FFF773F99F
:1022B00000210220FFF7D2F912A0FFF76CF90021EC
:1022C0000320FFF7CBF915A0FFF765F910BD00005B
:1022D00008000020415350482E20534554504F4988
:1022E0004E5420202020205E000000005441524720
:1022F0004554202323232046202020202020203E38
:10230000000000004C4F2F454E4120232323204640
:1023100020204553432D2D3E00000000202020208A
:1023200020202020202020202020204F4B2D2D3E1B
:102330000000000010B50A490A200870FFF70FF9E5
:1023400000210846FFF78AF906A0FFF724F90021CB
:102350000320FFF783F909A0FFF71DF910BD000066
:1023600008000020232323232020202020202020B9
:10237000202020202020205E00000000202020209F
:102380002020202020202020204241434B2D2D3E84
:102390000000000010B50A490B200870FFF7DFF8B5
:1023A00000210846FFF75AF906A0FFF7F4F80021CC
:1023B0000320FFF753F909A0FFF7EDF810BD000067
:1023C0000800002023232323202020202020202059
:1023D000202020202020205E00000000202020203F
:1023E0002020202020202020204241434B2D2D3E24
:1023F0000000000010B5114912200870FFF7AFF877
:1024000000210846FFF72AF90DA0FFF7C4F80021C4
:102410000120FFF723F910A0FFF7BDF800210220EB
:10242000FFF71CF912A0FFF7B6F800210320FFF711
:1024300015F915A0FFF7AFF810BD00000800002047
:102440004255524E45522044454C41592054494D25
:102450004520205E00000000232323204852202036
:1024600020202020202020202020202000000000EC
:102470002020202020202020202020202020455304
:10248000432D2D3E00000000202020202020202071
:10249000202020202020204F4B2D2D3E000000002A
:1024A00010B5114917200870FFF759F800210846A8
:1024B000FFF7D4F80DA0FFF76EF800210120FFF719
:1024C000CDF810A0FFF767F800210220FFF7C6F84B
:1024D00012A0FFF760F800210320FFF7BFF815A056
:1024E000FFF759F810BD0000080000205245534581
:1024F00054204255524E45522054494D4520205EAD
:102500000000000050415353574F524420202020D8
:10251000202020202020203E000000002323232311
:10252000202020202020202020204553432D2D3EF8
:10253000000000002020202020202020202020201B
:102540002020204F4B2D2D3E0000000010B51149DA
:1025500014200870FFF703F800210846FFF77EF803
:102560000DA0FFF718F800210120FFF777F80EA063
:10257000FFF711F800210220FFF770F810A0FFF715
:102580000AF800210320FFF769F813A0FFF703F80A
:1025900010BD0000080000204255524E4552205206
:1025A000554E2054494D450023232E2323232048F4
:1025B0005253202020202020202020200000000036
:1025C000202020202020202020202020524553455C
:1025D000542D2D3E0000000020202020202020200F
:1025E00020202020204241434B2D2D3E00000000A2
:1025F00010B5114911200870FEF7B1FF00210846FF
:10260000FFF72CF80DA0FEF7C6FF00210120FFF711
:1026100025F810A0FEF7BFFF00210220FFF71EF8EB
:1026200012A0FEF7B8FF00210320FFF717F815A04E
:10263000FEF7B1FF10BD000008000020434F4D42DF
:10264000555354494F4E2053455420202020205E9E
:1026500000000000544152474554202323234620C4
:10266000202020202020203E000000004C4F2F453D
:102670004E4120232323462020204553432D2D3E29
:1026800000000000202020202020204F4B2D2D3E38
:1026900020202020202020200000000010B511491B
:1026A00015200870FEF75BFF00210846FEF7D6FFF5
:1026B0000DA0FEF770FF00210120FEF7CFFF10A054
:1026C000FEF769FF00210220FEF7C8FF12A0FEF707
:1026D00062FF00210320FEF7C1FF15A0FEF75BFF9C
:1026E00010BD0000080000205245534554205255AB
:1026F0004E2054494D4520202020205E000000003F
:1027000050415353574F5244202020202020202056
:102710002020203E0000000023232323202020200F
:102720002020202020204553432D2D3E0000000076
:102730002020202020202020202020202020204F6A
:102740004B2D2D3E0000000010B5114914200870DB
:10275000FEF705FF00210846FEF780FF0DA0FEF7FB
:102760001AFF00210120FEF779FF0DA0FEF713FFED
:1027700000210220FEF772FF0FA0FEF70CFF0021E0
:102780000320FEF76BFF12A0FEF705FF10BD00004F
:102790000800002043502052554E2054494D45001A
:1027A00023232E232323204852532020202020207F
:1027B0002020202000000000202020202020202099
:1027C0002020202052455345542D2D3E000000006E
:1027D0002020202020202020202020202042414393
:1027E0004B2D2D3E0000000010B51149022008704D
:1027F000FEF7B5FE02210020FEF730FF0DA0FEF728
:10280000CAFE00210120FEF729FF0EA0FEF7C3FE3D
:1028100000210220FEF722FF0FA0FEF7BCFE0621DA
:102820000320FEF71BFF10A0FEF7B5FE10BD000051
:102830000800002054454D504552415455524553CF
:102840000000000041535048414C5420434F4D423A
:10285000555354494F4E00002323232E2346202353
:1028600023232E23460000004D454E552D2D3E00BE
:1028700010B5FEF77CFEFEF772FE10BD10B51149D3
:1028800003200870FEF76BFE0A210020FEF7E6FE2B
:102890000DA0FEF780FE02210120FEF7DFFE0DA055
:1028A000FEF779FE09210220FEF7D8FE0EA0FEF702
:1028B00072FE0D210320FEF7D1FE0EA0FEF76BFE87
:1028C00010BD000008000020564F4C544147452DD4
:1028D0002D3E0000492F4F20444941474E4F53544D
:1028E0004943532D2D3E000053455454494E475300
:1028F0002D2D3E00484F4D452D2D3E0010B5114960
:1029000013200870FEF72BFE00210846FEF7A6FEF6
:102910000DA0FEF740FE00210120FEF79FFE0DA056
:10292000FEF739FE00210220FEF798FE0FA0FEF709
:1029300032FE00210320FEF791FE12A0FEF72BFECF
:1029400010BD00000800002052554E2054494D454E
:102950005300000020202020434F4E54524F4C2063
:1029600050414E454C2D2D3E0000000020202020DF
:10297000202020202020204255524E45522D2D3E11
:1029800000000000202020202020202020202020C7
:10299000204241434B2D2D3E0000000010B511494F
:1029A0000C200870FEF7DBFD00210846FEF756FEFE
:1029B0000DA0FEF7F0FD00210120FEF74FFE10A054
:1029C000FEF7E9FD00210220FEF748FE12A0FEF707
:1029D000E2FD00210320FEF741FE15A0FEF7DBFD1E
:1029E00010BD00000800002053455454494E475381
:1029F000202020202054454D502D2D3E0000000069
:102A000020202020204255524E45522044454C4122
:102A1000592D2D3E000000002020202020202020C5
:102A200052554E2054494D45532D2D3E0000000077
:102A3000202020202020202020202020204D454E16
:102A4000552D2D3E0000000010B5144900200870DF
:102A5000FEF785FD00210846FEF700FE10A0FEF7F8
:102A60009AFD00210120FEF7F9FD12A0FEF793FD6B
:102A700000210220FEF7F2FD13A0FEF78CFD0021DD
:102A80000320FEF7EBFD13A0FEF785FD13210320C5
:102A9000FEF7E4FD12A0FEF77EFD10BD0800002049
:102AA0004B2D4D20494E5445524E4154494F4E41B5
:102AB0004C000000484F5420424F5820434F4E5482
:102AC000524F4C4C4552000048422D43502D43324A
:102AD0000000000052455620232E23230000000052
:102AE0002300000010B50D490D200870FEF737FDDA
:102AF00000210846FEF7B2FD09A0FEF74CFD0021BB
:102B00000120FEF7ABFD0CA0FEF745FD00210320E0
:102B1000FEF7A4FD0EA0FEF73EFD10BD080000204C
:102B200054454D50202020202020202020554E4963
:102B3000542D2D3E000000002020202020202020A9
:102B4000534554504F494E54532D2D3E0000000024
:102B5000202020202020202020202020202045531D
:102B6000432D2D3E0000000010B511490F200870C4
:102B7000FEF7F5FC00210846FEF770FD0DA0FEF7FC
:102B80000AFD00210120FEF769FD10A0FEF703FDFC
:102B900000210220FEF762FD12A0FEF7FCFC0021DE
:102BA0000320FEF75BFD15A0FEF7F5FC10BD00004D
:102BB0000800002054454D5045524154555245207F
:102BC000534554504F494E5400000000202020200F
:102BD00020202020202041535048414C542D2D3E90
:102BE0000000000020202020202020434F4D42558F
:102BF0005354494F4E2D2D3E000000002020202030
:102C0000202020202020202020204553432D2D3E11
:102C10000000000010B50446104986B00E20087070
:102C2000FEF79DFC00210846FEF718FD0CA0FEF7FC
:102C3000B2FC00210120FEF711FD22460DA16846DD
:102C4000FEF790FF6846FEF7A6FC00210320FEF782
:102C500005FD0DA0FEF79FFC06B010BD080000208A
:102C600054454D504552415455524520554E4954B6
:102C70005300000025642020202020202020204315
:102C800059434C452D2D3E0020202020202020207F
:102C9000202020202020204F4B2D2D3E0000000022
:102CA00010B50446104986B004200870FEF757FCA2
:102CB00000210846FEF7D2FC0CA0FEF76CFC0021B8
:102CC0000120FEF7CBFC22460CA16846FEF74AFF26
:102CD0006846FEF760FC0D210320FEF7BFFC0CA048
:102CE000FEF759FC06B010BD0800002042415454C4
:102CF00045525920564F4C54530000002564202063
:102D00002020202020202020202020205644430066
:102D10004D454E552D2D3E00AEB0FDF7DFFEFEF7C2
:102D2000FEFEFEF7D9FCFEF7A9FCFEF75FFD3E2292
:102D3000314915A8FDF72DFA2F4DE98F20A84182C2
:102D40002946403106220C4625A8FDF722FAE188E3
:102D500020A8418329461522483127A8FDF719FAF2
:102D6000617F28A84174286E2D90542219A96846C5
:102D7000FDF70FFA15A80FC8FEF758FD1F4C29469E
:102D80002060382240390CA8FDF703FA2846403865
:102D9000816B1A91C06B1B90302210A96846FDF719
:102DA000F8F90CA80FC8FFF70DF86060144C012269
:102DB00080212046FDF77EFE012251022046FDF7CC
:102DC00079FEFFF755FD0020FFF71CF87D24E40095
:102DD0002046FDF78BFD0120FFF714F82046FDF794
:102DE00085FD0220FFF70EF80320FFF70BF82046C1
:102DF000FDF77CFDF8E700007000002018000020BF
:102E0000000400480000000000000000010203046C
:102E100006070809342E00080000002030000000DA
:102E2000481C0008642E000830000020A8040000A0
:102E3000581C000800000000000000000000000016
:102E40000000000000000000000000000000000082
:102E5000000000000100000004000000000000006D
:042E600000127A00E2
:04000005080000B53A
:00000001FF
