:020000040800F2
:1000000060040020C9000008A91000088D0E000837
:1000100000000000000000000000000000000000E0
:10002000000000000000000000000000AD1000080B
:100030000000000000000000AB100008AF10000836
:10004000DB00000800000000DB000008DB00000807
:10005000DB000008DB000008DB000008DB00000814
:1000600000000000DB000008DB000008DB000008E7
:10007000DB000008DB000008DB00000800000000D7
:10008000DB000008DB00000800000000DB000008C7
:10009000DB000008DB000008DB000008DB000008D4
:1000A000DB000008DB000008DB000008DB000008C4
:1000B000DB0000080348854600F07EF90048004751
:1000C000C11100086004002004488047044800472C
:1000D000FEE7FEE7FEE7FEE7FEE7FEE7FB100008AF
:1000E000B500000830B50B4601460020202201244F
:1000F00009E00D46D5409D4205D31D469540491B5C
:100100002546954040191546521E002DF1DC30BDA4
:10011000F0B51FB40646002082B005464024019188
:1001200000901BE0019922460F46304600F020F86F
:10013000049A059B801A994110D31046194622460D
:1001400000F08AF8361A8F410197224601200021DB
:10015000009F00F081F838184D4100902046641E41
:100160000028DFDC019B00982946324607B0F0BD2D
:1001700010B5202A04DB0846203AD040002110BDEB
:100180000B46D340D0402024A21A91400843194680
:1001900010BDD2B201E00270401C491EFBD2704774
:1001A0000022F6E710B513460A4604461946FFF743
:1001B000F0FF204610BD70B54B005B0803430BD029
:1001C0004B005C0D002633466542B341D417AD1A8F
:1001D000A34102DB0020014670BD120530185141D9
:1001E00070BDC217C10F504010B54018CA07962302
:1001F000002100F049F810BD0EB5C217C10F5040E4
:10020000CA0740180021054B0293019200910A464B
:100210000B4600F07FF803B000BD0000330400007F
:10022000CB0FDB07490010B5490802460A4307D047
:100230000A0D07240903E401090B121B002A01DC43
:10024000002010BDC900440F0C43C100E018D205C6
:10025000801800F011F810BD10B5202A04DB01460B
:10026000203A9140002010BD914020239C1A034663
:10027000E3401943904010BD002904DA401C4900B6
:1002800001D140084000704770B40024050C05D12E
:100290001024000402D1002921D01124050E01D11F
:1002A00000020834050F01D10001241D850F01D182
:1002B0008000A41C002801DB4000641C002908D039
:1002C00020252E1B0D46F540A14000D001212943D9
:1002D000084301061B1B000ADB1D02D5002070BC71
:1002E0007047DB05181880180029F8DA401C49000F
:1002F000F5D170BC40084000704710B5002B08DAFB
:100300000024401C614192185B411A4301D140080E
:10031000400010BDF0B51FB482B005460C0003D0FC
:10032000084600F0EBFE02E000F0E8FE2030024656
:10033000009021462846FFF78FFF049B059A04464C
:100340000F4618431143084314D0184610431BD0DE
:10035000009840210A1A18460599FFF709FF05463B
:100360000E46009A05990498FFF776FF084305D0DA
:10037000012004E02046394607B0F0BD0020C11737
:1003800005430E432C43374300990E986305401AEA
:100390007905E40A00220C43FD0A0A3002D5002048
:1003A0000146E9E70105101969410C9C0D9D0019F2
:1003B0006941FFF7A2FFDFE7064C0125064E05E085
:1003C000E36807CC2B430C3C98471034B442F7D376
:1003D000FFF774FE3012000850120008F8B500252F
:1003E000044620340095227D012A39D0012222754D
:1003F00003689E68760767D4384F4E68BE424DD07A
:100400009E6A0F78BA4016439E620123C26A1B0798
:100410009A421FD0012A1DD0022A1BD0032A19D0CC
:10042000042A17D0052A15D0062A13D0072A11D07E
:1004300002688B6856697607760FB3420AD0536913
:10044000DB08DB005361006842690B7A5B075B0FD6
:100450001A4342610A68102A04D0112A02D038E0F7
:100460000220F8BD1E488368102A07D00122920599
:10047000134383600868102803D02AE00122D205C4
:10048000F6E7194817490068FFF72CFE0A21484390
:1004900000E0401E00900028FBD11AE0986A0E7818
:1004A000B240904398620968102901D0112910D1F7
:1004B0000B488268102904D0012189058A43826093
:1004C00007E00121C905F9E7816B2022114381630F
:1004D0000125002020752846F8BD0000011000000D
:1004E0000027014040420F001C000020F8B5002604
:1004F0000446002805D0A06B25462035002802D0F0
:1005000007E00120F8BD0020E0632875204600F0D8
:10051000A9F8A06B1022C006002870DB2068816853
:1005200049076CD4A16B1301994302231943A163BA
:1005300081688907890F012905D10168C9070FD191
:10054000C16809040CD4C16818239943A3681943EE
:10055000C1602068016963688900890819430161E5
:100560002068C1683D4B1940C160207E617E8003D8
:10057000C9030843A17E4B031843A36A012B02D091
:1005800001231B0300E000231843E3681843236999
:10059000022B09D0002318432B79E57E5B0018431A
:1005A0000123012D02D00AE00423F4E7002927D01B
:1005B000A16B20252943A163E16B1943E163E16944
:1005C0000D46FF3DC23D02D0256A294308432168FC
:1005D000CD680543CD600125E16A2D07A94213D0FE
:1005E000012911D002290FD003290DD004290BD0E5
:1005F000052909D0062907D0072905D010E028E0F1
:10060000012109040843DAE721684D69ED08ED008E
:100610004D6121684D69A78D7F077F0F3D434D6177
:100620002168C9680E4D2940814207D10020E0634E
:10063000A06B80088000401CA06308E0A06B022132
:1006400088431043A063E06B1843E0630126304603
:10065000F8BDA06B1043A063F8E700001902FEFF8D
:10066000E7FF3F8310B586B0044614216846FFF7C4
:1006700097FD10492068884219D10F4882694115B9
:100680000A43826182690A400592426909020A436B
:1006900042614069084005900820009003200190C5
:1006A0000020029009206946C00600F019F806B043
:1006B00010BD0000002401400010024070B5044647
:1006C00000F0ECF80546601C02D0044800782418BD
:1006D00000F0E4F8401BA042FAD370BD10000020E7
:1006E000F8B5002303240125BAE02E469E40B44607
:1006F00032407CD00E79B607B60F012E01D0022E03
:1007000017D186682746B6465E00B7400096764603
:10071000BE43B646CF68009EB740764637438760F3
:1007200046686746BE430F79FF06FF0F9F40374379
:1007300047600E79F643B6070ED0C6682746B44622
:100740005E00B646B7406646BE43B4468F687646FE
:10075000B74066463743C7600E79B607B60F022E1C
:1007600014D1DE08B60036180096366A5F07B44624
:10077000FE0E0F27B646B7406646BE43B4460F6925
:100780007646B74066463743009E3762066827467E
:10079000B4465E00B646B7406646BE430F79B446DF
:1007A000BF07BF0F7646B7406646374307604E68BF
:1007B000B603B60F53D02D4FBE692E43BE61BE693E
:1007C0009F08F607F60F2A4EBF00BE190096B668BE
:1007D0000F27B4469E07360FB646B7406646BE435F
:1007E0000927FF06B446B84202D1002710E036E0E0
:1007F000204FB84201D101270AE01F4FB84201D172
:10080000022705E01D4FB84201D1032700E005276C
:100810007646B74066463743009EB760184E366846
:100820004F689643FF0300D51643154F3E607E6820
:100830004F689643BF0300D51643114F7E60BE68D4
:100840004F689643FF0200D516430D4FBE60FE6809
:100850004F689643BF0200D51643094AD6605B1C19
:100860000A681646DE4000D03FE7F8BD001002409F
:10087000000001400004004800080048000C004847
:10088000000401400069084000D001207047002AA0
:1008900001D0816170478162704700000148806823
:1008A0007047000010000020024881680278891813
:1008B000816070471000002010B5064801681022C2
:1008C00011430160002000F007F800F027F8002035
:1008D00010BD00000020024070B504460D4D7D2083
:1008E0002978C000FFF7FEFB01460B480068FFF7C0
:1008F000F9FB00F0B3FA002809D1042C07D200223A
:100900002146401E00F01EF800206C6070BD0120E2
:1009100070BD0000100000201C00002008B5084831
:100920008169012211438161816911400091C2698D
:1009300001040A43C261C0690840009008BD00007C
:100940000010024010B500F009FC10BDF8B50F46CC
:10095000060059D03A4D2868C007C00FB84209D2E6
:10096000286840084000384328602868C007C00F46
:10097000B84249D13068334C81070CD5400704D5C3
:10098000606807210902084360606068F0218843BD
:10099000B168084360603078C00726D070680128CD
:1009A0000ED0216802280ED0890700292CDA616850
:1009B0008908890001436160FFF770FF00900DE036
:1009C00021688903F1E78901EFE7FFF767FF0099E5
:1009D000411A1D48814201D90320F8BD60680C21ED
:1009E0000840716889008842EFD12868C007C00FAD
:1009F000B8420BD92868400840003843286028686E
:100A0000C007C00FB84201D00120F8BD30784007C0
:100A100006D56068072109028843F16808436060D1
:100A200000F018F86168094A0906090F515CC840CE
:100A3000074908600020FFF74FFF0020F8BD0000C5
:100A4000002002400010024088130000201200081D
:100A50001C00002010B514A30FCB88B06C460FC447
:100A600015A30FCB0FC4184A51680C200B46034046
:100A70001648042B16D0082B14D18B021B0F6C4682
:100A8000E45CD26A04AB1207120F9A5CC90305D565
:100A900000231946FFF73CFB214601E020460C49A4
:100AA00000F043FB08B010BD020304050607080967
:100AB0000A0B0C0D0E0F10100102030405060708A7
:100AC000090A0B0C0D0E0F100010024000127A00E4
:100AD00000093D00FEB5040070D02078DC4DC00751
:100AE0004AD068680007800F012807D068680007AF
:100AF000800F022809D16868C00306D528688003E2
:100B00003AD560680028E7D036E06168012914D042
:100B100001208004002901D0052914D02A68012170
:100B200009048A432A602968814329606068002893
:100B300016D0FFF7B3FE06460EE02868012109042F
:100B400008432860F2E7296801432960F5E7FFF7C9
:100B5000A5FE801B64286ED828688003F7D50BE0BB
:100B6000FFF79CFE064604E0FFF798FE801B642812
:100B7000F1D828688003F7D4207801268007002860
:100B80003CDA68680007800F07D068680007800FAC
:100B9000022809D16868C00306D42868800716D5E2
:100BA000E06801280AD112E0E0680028286816D021
:100BB00030432860FFF772FE074605E043E1FFF788
:100BC0006DFEC01B0228C6D828688007F7D52868A4
:100BD000F82188432169C900084328600EE04008D5
:100BE00040002860FFF75AFE074604E0FFF756FE74
:100BF000C01B0228AFD828688007F7D420780007E8
:100C000022D5E0690028686A0ED030436862FFF799
:100C100045FE074604E0FFF741FEC01B02289AD8B4
:100C2000686A8007F7D50FE0400840006862FFF768
:100C300035FE074605E09DE0FFF730FEC01B0228A9
:100C400089D8686A8007F7D42078042740070028ED
:100C500060DA00200190E869C00008D4E969B806AC
:100C60000143E961E969014001200091019079485F
:100C70000168C90511D40168821511430160FFF7AD
:100C80000DFE009005E0FFF709FE0099401A642868
:100C900070D870480068C005F5D5A06801280AD052
:100CA000002801D0052810D0286A4008400028629A
:100CB000286AB84301E0286A30432862A068002807
:100CC00012D0FFF7EBFD00900AE0286A3843286253
:100CD000F1E7FFF7E3FD0099411A5F48814249D8E7
:100CE000286A8007F5D50DE0FFF7D8FD009006E0F3
:100CF000FFF7D4FD0099411A574881423AD8286A33
:100D00008007F5D40198002804D0E9690120000784
:100D10008143E9612078C00635D5606901280CD08F
:100D2000401D686B23D038436863686B40084000FF
:100D30006863FFF7B3FD064622E0686B38436863DB
:100D4000686B30436863FFF7A9FD064604E0FFF7D0
:100D5000A5FD801B02285BD8686B8007F7D5686B00
:100D6000F8218843A169C900084368630BE0B843D0
:100D70006863F4E74CE0FFF791FD801B022847D839
:100D8000686B8007F7D4206A00285ED0696809077D
:100D9000890F022942D0012636060228286805D08C
:100DA000B0432860FFF77AFD044633E0B043286083
:100DB000FFF774FD074604E0FFF770FDC01B022833
:100DC00026D828688001F7D4E86AE16A00090001A2
:100DD0000843E862616AA06A084369683D22120418
:100DE000914308436860286830432860FFF756FD48
:100DF000044604E0FFF752FD001B022808D82868CB
:100E00008001F7D521E0FFF749FD001B022801D939
:100E10000320FEBD28688001F5D416E00128F8D033
:100E20006868E96A01221204636A02409A420AD1A0
:100E30000907E26A090F914205D10F218904084090
:100E4000A16A884201D00120FEBD0020FEBD000045
:100E5000001002400070004088130000094910B5DE
:100E6000401E884201D9012010BD074C606103215A
:100E7000081F00F073F90020A06107202061002006
:100E800010BD0000FFFFFF0000E000E0FEE70000F3
:100E90000EB500211448009101910291114A416060
:100EA00002608160012204230C300EC00170417089
:100EB0008170FF23C170C2334360034681600833F1
:100EC000197102611838FFF711FB0320009001200F
:100ED000000301900004029069460348FFF77EFA80
:100EE0000EBD00000024014020000020F0B587B0B6
:100EF00014216846FFF754F93B4842690121C904AF
:100F00000A43426142690A400592426989100A43D4
:100F1000426142690A400592426949010A434261BD
:100F200042690A400592426909110A4342614069D7
:100F30000B240840A4020590002221462B48FFF70D
:100F4000A6FC0022B0212A48FFF7A1FC294E092067
:100F500000223146C006FFF79AFC274F002239468F
:100F60002648FFF794FC0094002401250195029483
:100F700069461E480394FFF7B3FB032080030090EB
:100F80000194694602941948FFF7AAFBB02000902B
:100F900002946946019503941548FFF7A1FB0920C7
:100FA00002946946C006009601950394FFF798FBEA
:100FB000029469461148009701950394FFF790FB4E
:100FC000A8036A4631C269460C48FFF789FB032033
:100FD000C00200900920019469460294C006FFF700
:100FE0007FFB07B0F0BD0000001002400008004881
:100FF0000014004870800000E02F0000000400484A
:10100000F8B5274D01210022C9022846FFF73FFC11
:1010100001261F2476037700012231462846FFF778
:1010200036FC39462846FFF72DFC0022314628467B
:10103000FFF72DFC00BF00BF00BF00BF641EEBD553
:101040000122D1022846FFF722FC1649CD780A4634
:101050006C07640F083A14700878C30953606A0774
:1010600003D06042FFF7BDF8F8BD0124E443002B34
:1010700009D04978800189080843C004C00CE10CFC
:101080004840404203E04978800189080843FFF75F
:10109000B3F82246FFF78FF8FFF7C2F8F8BD00005B
:1010A000000400480800002070477047704710B5E2
:1010B000FFF7FAFB10BD10B590B030216846FFF77E
:1010C0006FF8002412200F94009001200D940390DB
:1010D000059010200E94049006900C940894684695
:1010E000FFF7F8FC07200C900D940E9400210F944C
:1010F0000CA8FFF72BFC10B010BD70472021020C8C
:1011000001D010211046020A01D010460839020908
:1011100001D01046091F820801D01046891E4208DE
:1011200001D0881E7047081A7047F8B5040C8BB2BE
:10113000264682B25E430D0C1046370C58433604E7
:1011400080190021794116466E43370C3604801908
:10115000794126466E438919F8BD00008307FF22B6
:10116000DB0E9A408907090E9940002808DB8308A6
:1011700009489B001B181868904308431860704783
:101180000007000F0838830804489B001B18D86923
:1011900090430843D861704700E400E000ED00E0B0
:1011A00002E008C8121F08C1002AFAD17047704730
:1011B000002001E001C1121F002AFBD1704700008E
:1011C000FFF77AFBFFF777FFFFF790FEFFF760FE70
:1011D000104C012280212046FFF759FB01225102C9
:1011E0002046FFF754FB0122D1022046FFF74FFBB8
:1011F0000121002249032046FFF749FB0648FFF77B
:101200005DFA064CFFF7FCFE20600A20FFF756FA55
:10121000F8E7000000040048881300000C000020DC
:101220000000000000000000010203040607080996
:10123000501200080000002020000000A01100084B
:10124000701200082000002040040000B0110008C7
:10125000000000000000000000000000000000008E
:1012600001000000040000000000000000127A00ED
:04000005080000B53A
:00000001FF
